:1000000002308A00D92A0000FF00030E8301A100FC
:100010000A08A0008A010408A2007708A300780853
:10002000A4007908A5007A08A60003170D08031399
:10003000A70003170F080313A80003170C080313E6
:10004000A90003170E080313AA00831383128B1E43
:100050002B280B194C28220884002308F7002408B9
:10006000F8002508F9002608FA00270803178D0074
:100070000313280803178F000313290803178C00A4
:1000800003132A0803178E00031320088A00210E89
:100090008300FF0E7F0E09008A110A124F28B10A51
:1000A0000319B20A0B118A110A122B280C00F4371B
:1000B00063326F10253675004330840083130008C7
:1000C00003196F280630F800F701F70B6528F80BC5
:1000D00064287B30F700F70B6B28800B6228080040
:1000E0004A0EF039F7000F30080577048800000049
:1000F00008140330F700F70B7B28081008000808E5
:10010000F700080E0F39F800080083160810881051
:100110000811831288100F3083160805F038880004
:10012000831208150000081400007F207808CA0018
:100130000810000008149C289D2800007F207808E3
:10014000C90008100F3083160805880083124A0E74
:10015000F700F030F70577084904F8007808C9007F
:10016000C91B8B28471C88104718881400000811E9
:1001700000000810480EC9000F30C9054908CA0020
:10018000702048080F39C900CA00702008002830C4
:10019000BA000C30BB000130BC000630BD000810B6
:1001A000881008110F308316080588000810881081
:1001B00008110F308312C3005C200130B9003908E8
:1001C000033C031CEB280330CA0070200530C30039
:1001D0005C20B90ADF280230CA0070200530C30055
:1001E0005C20B9013908033C031C02293A30390765
:1001F000840083130008BE00C7013E08C8008520A4
:10020000B90AF2288A110A12FC2A1030BD00F7013F
:10021000FA01BA0CB90C031C13293B08F7070318A1
:10022000FA0A3C08FA07FA0CF70CF90CF80CBD0BAB
:100230000929080083160614831206182229AD0A1C
:100240000319AE0AAE08031D29292D080A3C03181C
:100250002C29AE010A30AD008A110A124B2B8316ED
:1002600086148312861838292D080319AE03AD03AE
:10027000AD08031D4129AE08031D4129AE0101301F
:10028000AD008A110A124C2B83160615831206192B
:100290005D2983160615831206195D298316061536
:1002A0008312061D4E290130B506351C5B29AE01AF
:1002B0000130AD005D29AE01AD018A110A124D2B4E
:1002C000F801F901F701FA013E08031D6A293D080A
:1002D000031984291030BF000310BB0DBC0DF70DAE
:1002E000FA0D3E087A02031D77293D087702031CA8
:1002F00080293D08F702031CFA033E08FA020314A2
:10030000F80DF90DBF0B6C298A110A12952B440BBD
:100310008A298D294030C5008E29C501013043024C
:10032000C50745088038C600C7014608C8008520B3
:1003300008004208073A0319A7290B3A0319AC2908
:10034000063A0319B429023A0319BA29BF29013020
:10035000C300C4008721C429C7010130C80085201B
:100360000230C3005C20C4290130C3000230C40045
:100370008721C429C7011030C8008520C429013055
:10038000C7004208C800852008000B08B9008B137D
:10039000831603178C170C1400000000831203133C
:1003A000B91B8B1703170C087F390319192A03137C
:1003B000B90003170D080313BA0003170F0803133E
:1003C000BB003908C20099213A0803178D000313B6
:1003D0003B0803178F0003130B08BC008B13831615
:1003E00003178C170C140000000083120313BC1BAE
:1003F0008B1703170C0D0E0D7F390319192A0313E0
:10040000B90003170D080313BA0003170F080313ED
:10041000BB003908C20099213A0803178D00031365
:100420003B0803178F008D0A03198F0A0313C52990
:10043000031703138A110A12A02B0B08BA008B139F
:10044000831603178C170C1400000000831203138B
:10045000BA1B8B170318542A03170C087F39031390
:10046000BA0003170D080313BB0003170F0803138B
:10047000BC003A08C20099213B0803178D00031302
:100480003C0803178F0003130B08BD008B13831662
:1004900003178C170C140000000083120313BD1BFC
:1004A0008B17B90B542A732A03170C0D0E0D7F39C5
:1004B0000313BA0003170D080313BB0003170F083B
:1004C0000313BC003A08C20099213B0803178D00B2
:1004D00003133C0803178F008D0A03198F0A0310BA
:1004E0000313B90B1D2A8A110A12AF2BC10104088C
:1004F000C0004110831B41143A0EF038BC00BC0709
:10050000E23EBD00323EBF003A080F39BD07BD07CD
:10051000BF07E93EBE00BE07BE07390E0F39BE0752
:10052000BF07BE0DBF0DBF09BF0D39080F39BF078B
:10053000BC0D0730BB000A30BF07BE03031C9C2A5A
:10054000BE07BD03031CA02ABD07BC03031CA42ACD
:10055000BC07BB03031CA82A3B308400831307306D
:100560004005401384073F30040203194017000878
:10057000F700031DC32A401BC32A401AD52AC019FD
:10058000C32A2030C62AC01540123030F707BA01FE
:100590000408B9003A10831B3A147708C200992165
:1005A0003908840083133A188317840A401FB32A3A
:1005B000080003081F398300FF30B600B801B701F7
:1005C000831603170908C039890003131F129F12ED
:1005D0000030031788008312870188018901831383
:1005E000FF30831603138600003087008312B600A5
:1005F000831688008312C72883160108C739283854
:100600008100C03083128B048B16B6113608831616
:10061000870083128711B61336088316870083126A
:1006200087173611360883168700831207110C309E
:10063000970083169B019C0101309D000030F8005B
:10064000063883129200F9308316920083129101CA
:10065000AC01AB01AE01AD0135102E08BA002D087A
:10066000B900BC016430BB0005217908BA007808E4
:10067000B900BA0CB90CBA0CB90CBA0C390895000F
:10068000BA0C3A0C3039F7001708CF3977049700C5
:10069000351C4C2B1A292F2944292E08BA002D0865
:1006A000B900BC016430BB0005217908AC007808B2
:1006B000AB002C08F9002B08F800F90CF80CF90C29
:1006C000F80CF90C78089500F90C790C3039F70022
:1006D0001708CF397704970081010230B900FA304A
:1006E000C3005C20B90B6F2B0108B9003108FA0078
:1006F00000303907B3007A08B4000318B40AB20115
:10070000B1013408BA003308B900BC017830BB002D
:1007100005217908BA007808B9007908BC00780882
:10072000BB00BE013230BD0060297908B0007808F6
:10073000AF00563003178D0000308F000313C5291A
:100740000130C3000230C4008721573003178D00E9
:1007500000308F00031006300313B9001D2A10303B
:1007600084003008BA002F08B90076220130C30097
:10077000C40087216330C20099216130C2009921F1
:100780007030C2009921103084002E08BA002D0864
:08079000B9007622482B63003A
:04400E00E72FFF3F5A
:00000001FF
;PIC16F887
;CRC=7A91  CREATED="26-May-22 23:14"
